:100000000C942A001895000018950000189500001F
:10001000189500001895000018950000189500002C
:10002000189500001895000018950000189500001C
:10003000189500001895000018950000189500000C
:1000400018950000189500001895000018950000FC
:10005000189500008FE58DBFC8E3E0E24E2E84E0E6
:100060008EBFD4E0F4E05F2EA89584B7082E877F7A
:1000700084BF88E1992781BD91BDEEEFF3E0A0E652
:10008000B0E088278D933197E9F70E9482016624BA
:1000900080E087BB889AB09B0C9450000E941501A9
:1000A000B19B0C9455000E942701B29B0C945A00FE
:1000B0000E943601B39B0C945F000E944801B49BE0
:1000C0000C9464000E9495000E946A018CE00E94DA
:1000D000D0018FE714E00E947901E0EFF4E00E9484
:1000E0005F018FEB11E00E947901ECEFF4E00E94D8
:1000F0005F01E2E6F0E0A8E0B4E00E9433020E9473
:100100005701E2E0F5E00E945F01E1E6F0E0A8E0DF
:10011000B4E00E9433020E94570182E390E00E9403
:10012000FD010C944B00F894FFCFB09B0C949A0007
:100130000E941501B19B0C949F000E942701B29B65
:100140000C94A4000E943601B39B0C94A9000E9459
:100150004801A0E6B0E08C918F5F8C9383EF92E032
:100160000E94FD0182B391E0892782BB009160006B
:100170000B3318F011F00C94BF000C94C70080E012
:1001800080936000A1E6B0E08C918F5F8C9300912A
:1001900061000B3318F011F00C94D0000C94D800CF
:1001A00080E080936100A2E6B0E08C918F5F8C9339
:1001B00000916200073118F011F00C94E1000C94EA
:1001C000E40080E0809362000E946A018CE00E945B
:1001D000D0010E946601EAE0F5E00E945F018FEB2A
:1001E00019E00E947901E2E6F0E0A8E0B4E00E94A4
:1001F00033020E945701E2E1F5E00E945F01E1E66F
:10020000F0E0A8E0B4E00E9433020E945701E2E16E
:10021000F5E00E945F01E0E6F0E0A8E0B4E00E94B3
:1002200033020E9457010C949500A1E6B0E08C9136
:100230008F5F8C93009161000B3318F011F00C94D8
:1002400023010C94260180E0809361000895809141
:100250006100815080936100009161000F3F11F0B7
:100260000C9435018BE3809361000895A2E6B0E021
:100270008C918F5F8C9300916200073118F011F020
:100280000C9444010C94470180E08093620008952F
:1002900080916200815080936200009162000F3F64
:1002A00011F00C94560187E1809362000895A8E054
:1002B000B4E08D91882311F06DD0FBCF08950E949A
:1002C0001102802D11F066D0FACF089582E068D037
:1002D00016D012C081E064D012D080E861C08FE7F0
:1002E000213039F08FEB223021F08FE8233009F0F4
:1002F0008FEC810F0C94D00180E852D0089583E0F8
:1003000099277BC08AEF90E00E94FD018F9A8E9A18
:100310008D9A8C9A8B9A8A9A929885E090E00E94A6
:10032000FD01939897989698959A949A939AEF933B
:10033000FF93E5E1F0E00E94F101FF91EF919398C6
:1003400059D0939AEF93FF93E5E1F0E00E94F10119
:10035000FF91EF9193984ED0939AEF93FF93E5E13D
:10036000F0E00E94F101FF91EF91939843D09498AF
:10037000939AEF93FF93E5E1F0E00E94F101FF9182
:10038000EF91939837D088E20BD08EE009D086E0C9
:1003900007D00895929A829505D004D02BD0089565
:1003A0009298F9CF859510F4949A01C09498859508
:1003B00010F4959A01C09598859510F4969A01C00D
:1003C0009698859510F4979A01C09798939AEF9311
:1003D000FF93E5E1F0E00E94F101FF91EF91939826
:1003E00008953197F1F70895689462F80895E894B4
:1003F00062F8089581E090E000C0EF93FF93EE274C
:10040000E82BE92B31F0EAEFF0E03197F1F70197B3
:10041000D1F7FF91EF9108950191119121913081D0
:100420000895C895319600200895000F111F221FCE
:10043000331F089500951095209530950F5F1F4F3D
:100440002F4F3F4F0895019110810FC00E940C0261
:100450000EC00E940C0210C00191108117FF05C050
:100460003FEF2FEF04C0008111272227332737FFEA
:1004700003C0E0DF8DE28D93CF92DF92EF92AA244A
:10048000BB24CC24DD24EE2440E2EAE0FF2755E043
:1004900093E38081890F87FD9F7083FD907F891B87
:1004A00081935A95A9F7C1DFAA1CBB1CCC1CDD1C8B
:1004B000EE1C4A9551F7E894EFE0FF2782910BD0AC
:1004C000EB30E0F71EF068948A2D09D04D93EF9041
:1004D000DF90CF900895982F829501D0892F8F704B
:1004E000805D26F0803309F4089568948D93089513
:1004F000456E7465722054696D650000486F7572B1
:100500003D002020204D696E3D0020434C4F434B61
:040510003A003A0073
:00000001FF
